:020000040800F2
:100000001804002045010008CD0700082D05000850
:10001000C9070008B9010008B91000080000000075
:10002000000000000000000000000000350C000887
:100030003103000800000000BD0A0008E90D0008B7
:100040005F0100085F0100085F0100085F01000810
:100050005F0100085F0100085F0100085F01000800
:100060005F0100085F0100085F0100085F010008F0
:100070005F0100085F0100085F0100085F010008E0
:100080005F0100085F0100085F0100085F010008D0
:100090005F0100085F0100085F0100085F010008C0
:1000A0005F0100085F0100085F0100085F010008B0
:1000B0005F0100085F0100085F0100085F010008A0
:1000C0005F0100085F0100085F0100085F01000890
:1000D0005F0100085F0100085F0100085F01000880
:1000E0005F0100085F0100085F0100085F01000870
:1000F0005F0100085F0100085F0100085F01000860
:100100005F0100085F0100085F0100085F0100084F
:100110005F0100085F0100085F0100085F0100083F
:100120005F0100085F0100085F0100085F0100082F
:10013000DFF80CD000F02EF800480047F912000854
:10014000180400200648804706480047FEE7FEE7FF
:10015000FEE7FEE7FEE7FEE7FEE7FEE7FEE7FEE777
:10016000ED0D00083101000830B50B4601460020B6
:100170002022012409E021FA02F59D4205D303FA69
:1001800002F5491B04FA02F52844151EA2F10102EA
:10019000F1DC30BD064C074D06E0E06840F001039D
:1001A00094E8070098471034AC42F6D3FFF7C4FF39
:1001B0005C1C00087C1C000800BFFEE708B501219C
:1001C000102000F09DFC8020ADF8000010208DF87C
:1001D000030001208DF802006946044800F00EF982
:1001E0008021024800F0A0F908BD00000010014085
:1001F00008B58020ADF8000004208DF803006946A2
:10020000014800F0FBF808BD0010014008B580204F
:10021000ADF8000010208DF8030001208DF80200D9
:100220006946024800F0EAF808BD000000100140ED
:1002300070B50025002424E000BF8021134800F0A1
:1002400068F90128F9D1282000F0B2FD80210F487B
:1002500000F05FF901280DD100BF80210B4800F0AC
:1002600058F90128F9D0C4F1070101208840C0B233
:10027000054304E0C4F10701012088408543601C68
:10028000C4B2082CD8DB284670BD00000010014025
:1002900010B50446FFF7BAFF8021244800F042F968
:1002A000122000F067FD8021204800F03DF91E205B
:1002B00000F07EFDFFF79CFF80211C4800F029F92B
:1002C00080BB00BF8021194800F023F90028F9D035
:1002D00000BF8021154800F01CF90128F9D0FFF774
:1002E000A7FF2070FFF7A4FF6070FFF7A1FFA070C9
:1002F000FFF79EFFE070FFF79BFF2071FFF786FF7F
:1003000080210A4800F010F9207861780844A1782B
:100310000844E17808442179884201D1012010BDC8
:100320000020FCE7FFE70020F9E700000010014093
:100330007047000010B504462948844208D10121C5
:10034000042000F0EDFB0021042000F0E9FB46E072
:100350002448844208D10121082000F0E1FB00215B
:10036000082000F0DDFB3AE01F48844208D101215B
:10037000102000F0D5FB0021102000F0D1FB2EE072
:100380001A48844208D10121202000F0C9FB002135
:10039000202000F0C5FB22E01548844208D101214D
:1003A000402000F0BDFB0021402000F0B9FB16E02A
:1003B0001048844208D10121802000F0B1FB0021C7
:1003C000802000F0ADFB0AE00B48844207D10121F8
:1003D000801500F0A5FB0021A01500F0A1FB10BDC9
:1003E00000080140000C01400010014000140140D1
:1003F00000180140001C0140002001402DE9F0419F
:10040000024600250026002000230024002791F842
:1004100003C00CF00F0591F803C00CF0100CBCF1F8
:10042000000F03D091F802C04CEA050591F800C016
:10043000BCF1000F31D0146800202BE04FF0010C0C
:100440000CFA00F3B1F800C00CEA03069E4220D17A
:1004500083004FF00F0C0CFA03F7BC4305FA03FCC2
:100460004CEA040491F803C0BCF1280F06D14FF008
:10047000010C0CFA00FCC2F814C00AE091F803C0A9
:10048000BCF1480F05D14FF0010C0CFA00FCC2F88A
:1004900010C0401C0828D1D31460B1F800C0BCF1D2
:1004A000FF0F34DD546800202EE000F1080C4FF0FF
:1004B000010808FA0CF3B1F800C00CEA03069E42EA
:1004C00021D183004FF00F0C0CFA03F7BC4305FA5F
:1004D00003FC4CEA040491F803C0BCF1280F05D1D9
:1004E00000F1080C08FA0CF8C2F8148091F803C067
:1004F000BCF1480F07D100F1080C4FF0010808FAD1
:100500000CF8C2F81080401C0828CED35460BDE817
:10051000F0810246002093680B400BB1012000E0FF
:1005200000207047416170470161704710B502A01B
:1005300000F0C4FD10BD00000D0A48617264466100
:10054000756C745F48616E646C65720D0A00000022
:1005500070B502460024002500230020958A138BE5
:100560001B0445EA030626F07F4404EA01068E4296
:1005700001D1012000E0002070BD21B1028842F0CD
:100580000102028004E002884FF6FE731A400280E6
:10059000704710B500F004F800F0A6F810BD000098
:1005A00008B50121082000F0ABFA1C208DF80300EB
:1005B000C020ADF8000003208DF802006946024813
:1005C000FFF71CFF08BD0000000C014021B10288AC
:1005D00042F48072028004E002884FF6FF631A4002
:1005E0000280704721B1028842F40072028004E068
:1005F00002884FF6FF531A40028070472DE9F043FE
:1006000085B004460D460026B1460427DFF8CC80AD
:10061000A6884FF6C0700640684600F091FADDF8F3
:1006200008802F48B8FBF0F01FFA80F946EA090667
:10063000A68020884FF6FE710840208000262949B8
:10064000286888420CD828684000B8FBF0F087B2D0
:10065000042F00DA04273E4309F10100208427E03B
:10066000E8884BF6FF71884206D1286800EB40000D
:10067000B8FBF0F087B209E0286800EBC00101EB9D
:100680000010B8FBF0F087B247F48047C7F30B00C7
:1006900008B947F0010747F4004006434FF496704D
:1006A00009FB00F04FF47A7190FBF1F0401C2084BC
:1006B000A683208840F00100208026884FF6F53080
:1006C0000640A8886989084306432680A8892989A5
:1006D0000843208105B0BDE8F083000000127A00D5
:1006E00040420F00A08601001FB50121480500F01F
:1006F000E7F94FF48060ADF80A000001ADF80C0096
:100700000A4800904FF48040ADF806000020ADF894
:100710000400C020ADF8080069460548FFF76EFFE9
:1007200001210348FFF729FF1FBD0000801A0600C2
:100730000054004012B141F0010102E04FF6FE7397
:1007400019400182704701827047000070B504466D
:100750000E46154601211948FFF738FF00BF18491A
:100760001648FFF7F5FE0028F9D00022214613486D
:10077000FFF7E0FF00BF13491048FFF7E9FE00282C
:10078000F9D031460D48FFF7DEFF00BF0D49891E45
:100790000A48FFF7DDFE0028F8D029460748FFF792
:1007A000D2FF00BF0749891E0448FFF7D1FE002889
:1007B000F8D001210148FFF715FF70BD005400403B
:1007C000010003008200070000BFFEE7704770B51C
:1007D000002415E004F1B001C8B200F01BFA0020BB
:1007E00000F018FA102000F015FA002504E00020AF
:1007F00000F018FA681CC5B2802DF8DB601CC4B28A
:10080000082CE7DB70BD10B54FF47A7000F0B2FA37
:10081000AE2000F0FFF9002000F0FCF9102000F0FD
:10082000F9F9402000F0F6F9B02000F0F3F981204A
:1008300000F0F0F9FF2000F0EDF9A12000F0EAF956
:10084000A62000F0E7F9A82000F0E4F93F2000F02E
:10085000E1F9C82000F0DEF9D32000F0DBF9002038
:1008600000F0D8F9D52000F0D5F9802000F0D2F9B9
:10087000D82000F0CFF9052000F0CCF9D92000F005
:10088000C9F9F12000F0C6F9DA2000F0C3F912200E
:1008900000F0C0F9DB2000F0BDF9302000F0BAF91B
:1008A0008D2000F0B7F9142000F0B4F9AF2000F06B
:1008B000B1F910BD70B504460D4605F1B001C8B2DE
:1008C00000F0A8F9102141EA141000F0A3F904F097
:1008D0000F0000F09FF970BD2DE9F04107460E466C
:1008E000154631463846FFF7E5FF002407E00F497B
:1008F00001EB4511085D00F095F9601CC4B2102CA5
:10090000F5DB701CC1B23846FFF7D4FF002409E0C4
:10091000064901EB451204F11001505C00F082F928
:10092000601CC4B2102CF3DBBDE8F081DC1B0008B6
:100930002DE9F04707460E469046994600250024CB
:10094000A8F12000C5B27F2F02DD0027B01CC6B27F
:10095000B9F1100F22D131463846FFF7ABFF002422
:1009600007E004EB0511174A505C00F05BF9601CCE
:10097000C4B2082CF5DB701CC1B23846FFF79AFFF1
:10098000002408E004EB051108310E4A505C00F029
:1009900049F9601CC4B2082CF4DB11E0314638463A
:1009A000FFF788FF002409E005EB4501064A02EB4A
:1009B0004101085D00F036F9601CC4B2062CF3DB7F
:1009C000BDE8F087EC150008C41300082DE9F041DC
:1009D00004460F461546984600260FE0AA5D43469A
:1009E00039462046FFF7A4FF04F10800C4B2782C72
:1009F00002DD0024B81CC7B2701CC6B2A85D002876
:100A0000ECD1BDE8F08100002DE9F04104460D462F
:100A100017461E46DDF81880FFF7D9FE0022114662
:100A20002020FFF759FF012200213020FFF754FF5B
:100A3000022200214020FFF74FFF03220021502017
:100A4000FFF74AFF434618A202211820FFF7BEFF16
:100A50004346224602214820FFF7B8FF434614A22E
:100A600002215820FFF7B2FF43462A4602216020A8
:100A7000FFF7ACFF43460FA204211820FFF7A6FFA3
:100A800043463A4604214820FFF7A0FF434608A208
:100A900004215820FFF79AFF434632460421602084
:100AA000FFF794FFBDE8F08148756D693A000000DA
:100AB0002E00000054656D703A0000007047000081
:100AC00029B1064AD2690243044BDA6104E0034AC1
:100AD000D2698243014BDA61704700000010024086
:100AE00029B1064A12690243044B1A6104E0034A21
:100AF00012698243014B1A617047000000100240E6
:100B000029B1064A92690243044B9A6104E0034A00
:100B100092698243014B9A617047000000100240C5
:100B200029B1064AD2680243044BDA6004E0034A62
:100B3000D2688243014BDA60704700000010024027
:100B400030B500210022002400232D4D6D6805F0F2
:100B50000C0121B1042905D0082923D105E0294D34
:100B6000056022E0274D05601FE0254D6D6805F406
:100B70007012234D6D6805F48034022505EB924216
:100B80001CB9214D554305600BE01D4D6D6805F402
:100B900000351DB11C4D5543056002E0194D55430C
:100BA000056002E0174D056000BF00BF144D6D6881
:100BB00005F0F0010909154D6B5C0568DD404560E5
:100BC0000F4D6D6805F4E061090A104D6B5C4568D6
:100BD000DD4085600A4D6D6805F46051C90A0B4D12
:100BE0006B5C4568DD40C560054D6D6805F44041AE
:100BF000890B074D6B5CC568B5FBF3F5056130BD2E
:100C00000010024000127A0000093D0000000020A0
:100C10001000002010B50446224600217820FFF77E
:100C200095FD10BD10B50446224640217820FFF7FF
:100C30008DFD10BD704710B500F002F810BD00002A
:100C40000CB50020019000903348006840F48030DB
:100C50003149086000BF3048006800F4003000905F
:100C60000198401C0190009818B90198B0F5A06F48
:100C7000F1D12948006800F4003010B10120009043
:100C800001E0002000900098012843D1234800682B
:100C900040F01000214908600846006820F0030079
:100CA00008600846006840F0020008601A48406882
:100CB000194948600846406848600846406840F462
:100CC000806048600846406820F47C104860084610
:100CD000406840F4E81048600846006840F08070C2
:100CE000086000BF0C48006800F000700028F9D0D0
:100CF0000948406820F003000749486008464068FA
:100D000040F00200486000BF0348406800F00C005B
:100D10000828F9D10CBD000000100240002002405C
:100D200030B50146B1F1807F01D3012030BD21F003
:100D30007F40401E4FF0E022506150170F220028E4
:100D400007DA13071D0E094B00F00F04241F1D5571
:100D500003E013071C0E064B1C5400BF00204FF08D
:100D6000E0229061072010610020DFE718ED00E02D
:100D700000E400E010B504460C48FFF7D1FF07E09F
:100D800000BF4FF0E020006900F480300028F8D068
:100D90002000A4F101018CB2F2D14FF0E0200069F3
:100DA00020F001004FF0E021086110BD4019010062
:100DB00010B504464820FFF7B3FF07E000BF4FF02F
:100DC000E020006900F480300028F8D02000A4F171
:100DD00001018CB2F2D14FF0E020006920F0010057
:100DE0004FF0E021086110BD7047000010B51348B6
:100DF000006840F001001149086008464068104949
:100E000008400E494860084600680E4908400B49F2
:100E100008600846006820F48020086008464068A2
:100E200020F4FE0048604FF41F008860FFF703FFC6
:100E30004FF000600449086010BD0000001002403F
:100E40000000FFF8FFFFF6FE08ED00E021B1828907
:100E500042F40052828104E082894DF6FF731A4009
:100E60008281704710B5044600F052F8204600F029
:100E7000EDF810BD10B504462048844209D1012187
:100E80008803FFF74DFE00214FF48040FFF748FE36
:100E900032E01B48844209D101214804FFF720FEBB
:100EA00000214FF40030FFF71BFE25E01548844277
:100EB00009D101218804FFF713FE00214FF480209F
:100EC000FFF70EFE18E01048844209D10121C80442
:100ED000FFF706FE00214FF40020FFF701FE0BE0B4
:100EE0000A48844208D101210805FFF7F9FD0021D5
:100EF0004FF48010FFF7F4FD10BD000000380140F2
:100F00000044004000480040004C004000500040B9
:100F100008B501210420FFF7F3FD0E48FFF70AFA98
:100F20004FF48060ADF8000004208DF8030069469E
:100F30000848FFF763FA4FF40070ADF8000018207E
:100F40008DF8030003208DF8020069460148FFF781
:100F500055FA08BD0008014002460020B1F5007FA7
:100F600000D100BF13880B400BB1012000E000202E
:100F7000704700002DE9F04786B005460E46002474
:100F8000A24600BFA1460027B08900B100BF2F468E
:100F90002C8A4CF6FF700440F08804432C82AC8904
:100FA0004EF6F3100440B088318908437189084334
:100FB0000443AC81AC8A4FF6FF400440B08904433F
:100FC000AC8201A8FFF7BCFD1F48874202D1DDF8C3
:100FD00010A001E0DDF80CA0A88900F4004040B1A9
:100FE0000AEBCA0000EB0A1031684900B0FBF1F8C7
:100FF00007E00AEBCA0000EB0A1031688900B0FB79
:10100000F1F86420B8FBF0F004012009642101FB31
:101010001089A88900F4004040B1322000EBC900DB
:10102000B0FBF1F000F00700044308E0322000EBD1
:1010300009106421B0FBF1F000F00F0004432C8193
:1010400006B0BDE8F0870000003801401FB5044637
:1010500001218803FFF754FD0C48FFF70BFF0094B4
:101060000020ADF80C000C20ADF80A000020ADF80F
:101070000800ADF80600ADF8040069460348FFF724
:1010800079FF01210148FFF7E1FE1FBD0038014053
:1010900010B504462146054800F00AF800BF80213B
:1010A0000248FFF759FF0128F9D110BD003801406F
:1010B000C1F308028280704700BFFEE70FB4054B02
:1010C00010B503A9044A029800F02CF810BC5DF892
:1010D00014FB0000E7120008140000200FB4084BB6
:1010E00010B504A902AA039800F01CF8044602A94E
:1010F000002000F0F3F8204610BC5DF814FB00005F
:10110000DD12000802E008C8121F08C1002AFAD147
:1011100070477047002001E001C1121F002AFBD177
:10112000704700002DE9FF4F8BB09A460F460546E9
:10113000002606E025280BD052460D9990476D1CDD
:10114000761C28780028F5D10FB03046BDE8F08F26
:101150000024A0460122604900E0044315F8013F45
:10116000203B02FA03F00842F7D128782E2817D145
:1011700015F8010F44F004042A280ED06FF02F0256
:101180002878A0F1300109290AD808EB880102EB80
:10119000410100EB01086D1CF2E757F8048B6D1C50
:1011A000287869283ED006DC0028CDD063280BD0F3
:1011B000642804D136E0732810D075284BD05246ED
:1011C0000D999047761C85E017F8040B8DF8000008
:1011D00000208DF80100E946012003E057F8049B48
:1011E0004FF0FF3061074FF0000401D40AE0641CA7
:1011F00044450DDA8442FADB19F804100029F6D1CF
:1012000006E0641C8442FCDB19F804100029F8D1C4
:10121000264404E019F8010B52460D999047641ECC
:10122000F8D257E001CF4FF00A0B002802DA404213
:101230002D2102E0210504D52B218DF82410012158
:1012400003E0E10705D02021F7E70DF1200908911F
:101250000CE00021F9E701CF4FF00A0BF9E75946FE
:10126000FEF782FF01F1300209F8012D0028F6D1C6
:10127000ADEB090000F1200B600701D44FF001082D
:10128000D84502DDA8EB0B0000E0002080460024DA
:1012900006E009A85246005D0D999047641C761C33
:1012A00008988442F5DB04E0302052460D999047BF
:1012B000761CB8F10001A8F10108F5DC05E019F889
:1012C000010B52460D999047761CBBF10001ABF122
:1012D000010BF4DC6D1C34E7092801000A68531C7B
:1012E0000B601070704770B504460D46E0B2FFF712
:1012F000CFFE204670BD00008EB04FF41650FFF7B1
:10130000B1FDFEF75BFFFFF744F9FFF77CFA3CE025
:1013100002A8FEF7BDFF0446D4B19DF808201BA12A
:1013200004A8FFF7DBFE9DF8092018A10DF11A00B3
:10133000FFF7D4FE9DF80A2014A109A8FFF7CEFEFE
:101340009DF80B2011A10DF12E00FFF7C7FE02E062
:101350000FA0FFF7B3FE4FF4FA60FFF70BFD10206C
:101360000DF12E0309AA0DF11A01009004A8FFF750
:101370004BFB0DF11A0204A90AA0FFF79FFE0DF125
:101380002E0209A90BA0FFF799FEC1E72564000012
:10139000BBF1C8A1CAFDBEDDCAA7B0DCA3A10D0A7E
:1013A00000000000CAAAB6C83A2025732E2573098A
:1013B000200000002020CEC2B6C83A2025732E257A
:1013C000730D0A000000000000000000002F000064
:1013D00000000700070000147F147F1400242A7FF8
:1013E0002A12006264081323003649552250000077
:1013F0000503000000001C224100000041221C00E7
:101400000014083E08140008083E0808000000A068
:101410006000000808080808000060600000002064
:1014200010080402003E5149453E0000427F400042
:10143000004261514946002141454B3100181412C8
:101440007F10002745454539003C4A494930000195
:101450007109050300364949493600064949291EE4
:101460000000363600000000563600000008142246
:101470004100001414141414000041221408000246
:101480000151090600324959513E007C1211127C6B
:10149000007F49494936003E41414122007F414198
:1014A000221C007F49494941007F09090901003E8A
:1014B0004149497A007F0808087F0000417F4100C8
:1014C000002040413F01007F08142241007F40403E
:1014D0004040007F020C027F007F0408107F003E26
:1014E0004141413E007F09090906003E4151215E0C
:1014F000007F091929460046494949310001017F09
:101500000101003F4040403F001F2040201F003F9E
:101510004038403F00631408146300070870080750
:1015200000615149454300007F41410000552A5563
:101530002A55000041417F000004020102040040DE
:101540004040404000000102040000205454547800
:10155000007F484444380038444444200038444420
:10156000487F00385454541800087E0901020018BE
:10157000A4A4A47C007F080404780000447D4000FB
:10158000004080847D00007F102844000000417FDF
:101590004000007C04180478007C080404780038BB
:1015A0004444443800FC242424180018242418FC43
:1015B000007C0804040800485454542000043F44AC
:1015C0004020003C4040207C001C2040201C003C6F
:1015D0004030403C004428102844001CA0A0A07CBF
:1015E000004464544C4414141414141400000000F7
:1015F000000000000000000000000000000000F8F3
:1016000000000000000000333000000000100C0655
:10161000100C0600000000000000000040C07840F0
:10162000C0784000043F04043F040400007088FCBC
:1016300008300000001820FF211E0000F008F00014
:10164000E018000000211C031E211E0000F0088885
:10165000700000001E2123241927211010160E00EF
:10166000000000000000000000000000000000E09A
:1016700018040200000000071820400000020418AF
:10168000E00000000040201807000000404080F00B
:10169000804040000202010F01020200000000F041
:1016A000000000000101011F010101000000000015
:1016B0000000000080B0700000000000000000008A
:1016C0000000000000010101010101010000000013
:1016D00000000000003030000000000000000000AA
:1016E00080601804006018060100000000E0100887
:1016F0000810E000000F102020100F00001010F85C
:10170000000000000020203F20200000007008089A
:10171000088870000030282422213000003008881A
:10172000884830000018202020110E000000C02042
:1017300010F8000000070424243F240000F8088863
:10174000880808000019212020110E0000E01088F0
:1017500088180000000F112020110E000038080822
:10176000C83808000000003F000000000070880832
:1017700008887000001C222121221C0000E01008B3
:101780000810E0000000312222110F00000000C00C
:10179000C0000000000000303000000000000080A9
:1017A0000000000000008060000000000000804099
:1017B00020100800000102040810200040404040B2
:1017C0004040400004040404040404000008102005
:1017D000408000000020100804020100007048084A
:1017E0000808F0000000003036010000C030C828B2
:1017F000E810E0000718272423140B000000C0386D
:10180000E0000000203C23020227382008F88888E6
:1018100088700000203F202020110E00C0300808F2
:1018200008083800071820202010080008F80808C9
:101830000810E000203F202020100F0008F88888C2
:10184000E8081000203F20202320180008F888888E
:10185000E8081000203F200003000000C030080806
:101860000838000007182020221E020008F808008F
:101870000008F808203F210101213F20000808F856
:10188000080800000020203F202000000000080879
:10189000F8080800C08080807F00000008F888C039
:1018A00028180800203F20012638200008F80800EA
:1018B00000000000203F20202020300008F8F80021
:1018C000F8F80800203F003F003F200008F830C033
:1018D0000008F808203F200007183F00E010080823
:1018E0000810E0000F10202020100F0008F8080852
:1018F0000808F000203F210101010000E010080865
:101900000810E0000F18242438504F0008F8888889
:1019100088887000203F2000030C30200070880869
:10192000080838000038202121221C00180808F877
:10193000080818000000203F2000000008F80800F8
:101940000008F808001F202020201F0008788800C9
:1019500000C83808000007380E010000F80800F839
:101960000008F800033C0700073C030008186880E3
:101970008068180820302C03032C30200838C80059
:10198000C83808000000203F2000000010080808A8
:10199000C83808002038262120201800000000FE4A
:1019A000020202000000007F40404000000C30C0F6
:1019B00000000000000000010638C0000002020222
:1019C000FE000000004040407F00000000000402D4
:1019D00002020400000000000000000000000000FF
:1019E00000000000808080808080808000020204EF
:1019F00000000000000000000000000000008080E7
:101A0000808000000019242222223F2008F8008054
:101A100080000000003F112020110E000000008017
:101A200080800000000E11202020110000000080A6
:101A30008088F800000E112020103F2000008080D8
:101A400080800000001F222222221300008080F0EC
:101A5000888888180020203F202000000000808017
:101A600080808000006B94949493600008F800805C
:101A700080800000203F210000203F2000809898B7
:101A8000000000000020203F202000000000008017
:101A90009898000000C08080807F000008F8000057
:101AA00080808000203F24022D302000000808F8AC
:101AB000000000000020203F202000008080808067
:101AC00080808000203F20003F20003F80800080F9
:101AD00080800000203F210000203F200000808007
:101AE00080800000001F202020201F0080800080B8
:101AF0008000000080FFA12020110E000000008067
:101B000080808000000E112020A0FF808080800057
:101B10008080800020203F21200001000000808084
:101B2000808080000033242424241900008080E079
:101B3000808000000000001F202000008080000046
:101B400000808000001F202020103F208080800027
:101B50000080808000010E30080601008080008037
:101B6000008080800F300C030C300F00008080005C
:101B7000808080000020312E0E3120008080800087
:101B80000080808080818E70180601000080808037
:101B9000808080000021302C2221300000000000D5
:101BA000807C020200000000003F40400000000076
:101BB000FF00000000000000FF0000000002027CA7
:101BC000800000000040403F0000000000060101CE
:101BD0000202040400000000000000001060028CFB
:101BE0000000FE9292929292FE00000004047E0198
:101BF000407E42427E427E42427E40000000FC2403
:101C00002424FC252624FC242424040040308F8036
:101C1000844C55252525554C80808000000000FE11
:101C200092929292929292FE00000000404244589A
:101C3000407F4040407F4050484640004040424244
:101C4000424242C242424242424040002010080604
:101C50000040807F00000002040830007C1C000867
:101C6000000000201800000004110008941C000867
:101C700018000020000400001411000800000000FB
:101C8000010203040102030406070809020406080E
:041C90000000000050
:0400000508000131BD
:00000001FF
